:020000040800F2
:10000000002800209D0800084D050008550500083F
:100010005D050008650500086D050008000000008A
:10002000000000000000000000000000750500084E
:1000300081050008000000008D05000899050008F2
:10004000E5080008E5080008E5080008E5080008DC
:10005000E5080008E5080008E5080008E5080008CC
:10006000E5080008E5080008E5080008E5080008BC
:10007000E5080008E5080008E5080008E5080008AC
:10008000E5080008E5080008E5080008E50800089C
:10009000E5080008E5080008E5080008E50800088C
:1000A000E5080008E5080008E5080008E50800087C
:1000B000E5080008E508000800000000E508000861
:1000C000E50800080000000000000000E508000846
:1000D00000000000E5080008E50800080000000036
:1000E000E5080008E5080008E50800080000000031
:1000F0000000000000000000000000000000000000
:0C01000000000000000000005FF808F1A3
:10010C0010B5054C237833B9044B13B10448AFF345
:10011C0000800123237010BD64000020000000004B
:10012C00D448000808B5034B1BB103490348AFF38F
:10013C00008008BD0000000068000020D4480008C2
:10014C00034613F8012B002AFBD1181A013870470B
:10015C0080B584B000AF3B1D00221A605A609A60D3
:10016C00184B194A1A60174B00229A60154B002243
:10017C001A73144B00221A75124B4FF46022DA6179
:10018C00104B00225A600F4B01221A610D4800F0EF
:10019C002BFC0346002B01D000F099F900237B6067
:1001AC000123BB600023FB603B1D1946054800F092
:1001BC00DFFE0346002B01D000F089F900BF103799
:1001CC00BD4680BD800000200024014080B588B071
:1001DC0000AF786007F1100300221A605A609A6031
:1001EC00DA607B681B68144A934221D1134B9B69DC
:1001FC00124A43F400739361104B9B6903F4007330
:10020C00FB60FB680D4B9B690C4A43F00403936144
:10021C000A4B9B6903F00403BB60BB6801233B6181
:10022C0003237B6107F110031946054801F018F907
:10023C0000BF2037BD4680BD0024014000100240A5
:10024C000008014080B586B000AF07F1080300221A
:10025C001A605A609A60DA602D4B9B692C4A43F005
:10026C00040393612A4B9B6903F004037B607B6856
:10027C00274B9B69264A43F008039361244B9B69E7
:10028C0003F008033B603B6800224FF48171214866
:10029C0001F079FA002201211F4801F074FA0123C0
:1002AC00BB600323FB6007F108031946194801F0F2
:1002BC00D7F84FF48173BB600123FB6000233B61D3
:1002CC0002237B6107F108031946124801F0C8F8B4
:1002DC000123BB600123FB6000233B6102237B6194
:1002EC0007F1080319460C4801F0BAF84FF44053D3
:1002FC00BB600023FB6000233B6107F10803194638
:10030C00054801F0ADF800BF1837BD4680BD00BFF1
:10031C000010024000080140000C014080B500AF05
:10032C00124B134A1A60114B124A5A600F4B00229F
:10033C009A600E4B0022DA600C4B4FF480421A612B
:10034C000A4B00225A61094B00229A61074B00228A
:10035C00DA61064B00221A62044801F045FA0346A2
:10036C00002B01D000F0B3F800BF80BDB00000201E
:10037C0000540040A086010080B588B000AF7860C2
:10038C0007F1100300221A605A609A60DA607B68E9
:10039C001B68164A934225D1154B9B69144A43F0AE
:1003AC0008039361124B9B6903F00803FB60FB6825
:1003BC00C0233B6112237B610023BB610323FB61E0
:1003CC0007F1100319460B4801F04AF8084BDB699A
:1003DC00074A43F40013D361054BDB6903F40013A4
:1003EC00BB60BB6800BF2037BD4680BD00540040D9
:1003FC0000100240000C014080B500AF00F06EFA16
:10040C0000F011F8FFF71EFFFFF7A2FE00F068F9ED
:10041C0000F090F9FFF782FF00F0FAF803F0B4F95E
:10042C0003F0EEF9FCE780B594B000AF07F12803B8
:10043C0028220021184603F0B7FD07F1140300220F
:10044C001A605A609A60DA601A613B1D00221A60C9
:10045C005A609A60DA600223BB620123BB631023EB
:10046C00FB6302237B640023BB640023FB6407F162
:10047C002803184601F054FE0346002B01D000F06F
:10048C0026F80F237B610223BB610023FB61002351
:10049C003B6200237B6207F114030021184602F033
:1004AC00C1F80346002B01D000F011F802237B6049
:1004BC000023FB603B1D184602F042FA0346002B5A
:1004CC0001D000F004F800BF5037BD4680BD80B4A9
:1004DC0000AF72B600BF00BFFDE7000080B485B06E
:1004EC0000AF154B9B69144A43F001039361124B07
:1004FC009B6903F00103BB60BB680F4BDB690E4AC1
:10050C0043F08053D3610C4BDB6903F080537B6069
:10051C007B680A4B5B68FB60FB6823F0E063FB6065
:10052C00FB6843F00073FB60044AFB68536000BF38
:10053C001437BD4680BC70470010024000000140DB
:10054C0080B400AF00BFFDE780B400AF00BFFDE793
:10055C0080B400AF00BFFDE780B400AF00BFFDE783
:10056C0080B400AF00BFFDE780B400AF00BFBD4654
:10057C0080BC704780B400AF00BFBD4680BC7047E4
:10058C0080B400AF00BFBD4680BC704780B500AFE3
:10059C0000F0EAF900BF80BD80B586B000AF78608E
:1005AC00144A154BD31A7B617B693B61134B1B6857
:1005BC00002B02D1114B124A1A60104B1A687B683F
:1005CC0013443A699A4207D203F0F6FC03460C2214
:1005DC001A604FF0FF3309E0084B1B68FB60074BB8
:1005EC001A687B681344054A1360FB681846183771
:1005FC00BD4680BD0028002000040000040100203E
:10060C004803002080B400AF00BFBD4680BC7047DB
:10061C0080B586B000AF07F1080300221A605A605B
:10062C009A60DA603B4600221A605A601D4B4FF00C
:10063C0080421A601B4B07225A601A4B00229A60A8
:10064C00184B4FF6FF72DA60164B00221A61154BED
:10065C0000229A61134802F0DFFA0346002B01D006
:10066C00FFF735FF4FF48053BB6007F108031946C1
:10067C000C4802F065FB0346002B01D0FFF727FF67
:10068C0000233B6000237B603B461946054802F083
:10069C0019FD0346002B01D0FFF719FF00BF1837D7
:1006AC00BD4680BD0801002080B485B000AF7860E5
:1006BC007B681B68B3F1804F0BD1084BDB69074A91
:1006CC0043F00103D361054BDB6903F00103FB60CD
:1006DC00FB6800BF1437BD4680BC70470010024059
:1006EC0080B500AF114B124A1A60104B4FF41652E2
:1006FC005A600E4B00229A600C4B0022DA600B4BB6
:10070C0000221A61094B0C225A61084B00229A6193
:10071C00064B0022DA61054802F02CFD0346002B43
:10072C0001D0FFF7D4FE00BF80BD00BF50010020F8
:10073C000038014080B500AF114B124A1A60104BC3
:10074C004FF416525A600E4B00229A600C4B00224A
:10075C00DA600B4B00221A61094B0C225A61084BD0
:10076C0000229A61064B0022DA61054802F002FD74
:10077C000346002B01D0FFF7AAFE00BF80BD00BFCF
:10078C00980100200044004080B58AB000AF78602A
:10079C0007F1180300221A605A609A60DA607B68CD
:1007AC001B68374A934232D1364B9B69354A43F426
:1007BC0080439361334B9B6903F480437B617B697A
:1007CC00304B9B692F4A43F0040393612D4B9B697B
:1007DC0003F004033B613B694FF40073BB610223DC
:1007EC00FB6103237B6207F118031946264800F0CE
:1007FC0037FE4FF48063BB610023FB6100233B6237
:10080C0007F118031946204800F02AFE34E07B68F3
:10081C001B681E4A93422FD11A4BDB69194A43F4C9
:10082C000033D361174BDB6903F40033FB60FB68C7
:10083C00144B9B69134A43F004039361114B9B695E
:10084C0003F00403BB60BB680423BB610223FB61A0
:10085C0003237B6207F1180319460B4800F000FED6
:10086C000823BB610023FB6100233B6207F11803E3
:10087C001946054800F0F4FD00BF2837BD4680BD81
:10088C0000380140001002400008014000440040C4
:10089C00FFF7B8FE0B480C490C4A002302E0D45871
:1008AC00C4500433C4188C42F9D3094A094C0023B0
:1008BC0001E013600432A242FBD303F083FBFFF789
:1008CC009BFD70470000002064000020984B00083E
:1008DC006400002048030020FEE7000080B500AF54
:1008EC00084B1B68074A43F010031360032000F009
:1008FC0083FD0F2000F008F8FFF7F0FD00231846E9
:10090C0080BD00BF0020024080B582B000AF78608F
:10091C00124B1A68124B1B7819464FF47A73B3FBBF
:10092C00F1F3B2FBF3F3184600F08DFD0346002BF8
:10093C0001D001230EE07B680F2B0AD800227968C6
:10094C004FF0FF3000F063FD064A7B681360002314
:10095C0000E0012318460837BD4680BD000000208A
:10096C00080000200400002080B400AF054B1B7869
:10097C001A46054B1B681344034A136000BFBD465F
:10098C0080BC704708000020E001002080B400AF5C
:10099C00024B1B681846BD4680BC7047E001002026
:1009AC0080B584B000AF7860FFF7F0FFB8607B686B
:1009BC00FB60FB68B3F1FF3F05D00A4B1B781A466E
:1009CC00FB681344FB6000BFFFF7E0FF0246BB6807
:1009DC00D31AFA689A42F7D800BF00BF1037BD4649
:1009EC0080BD00BF0800002080B586B000AF7860E5
:1009FC000023FB7500233B610023BB600023FB60DD
:100A0C007B68002B01D10123BEE07B689B68002B27
:100A1C007B689B6A002B09D17B680022DA627B68B9
:100A2C00002283F824207868FFF7D0FB786800F068
:100A3C00F1FB0346FB757B689B6A03F01003002BEC
:100A4C0040F09980FB7D002B40F095807B689B6A81
:100A5C0023F4885323F0020343F002027B689A626A
:100A6C007B685A687B68DB691A437B681B7B5B007D
:100A7C001343BA681343BB607B689B68B3F5807FF4
:100A8C0003D07B689B68012B02D14FF4807300E08C
:100A9C0000233A6913433B617B681B7D012B19D101
:100AAC007B681B7B002B09D17B689B69013B5A033C
:100ABC003B69134343F400633B610BE07B689B6A27
:100ACC0043F020027B689A627B68DB6A43F0010288
:100ADC007B68DA627B681B685B6823F469417B681E
:100AEC001B683A690A435A607B681B689A68284BF2
:100AFC0013407A681268B9680B4393607B689B68F3
:100B0C00B3F5807F03D07B689B68012B04D17B6895
:100B1C001B69013B1B05FB607B681B68DB6A23F4CC
:100B2C0070017B681B68FA680A43DA627B681B6891
:100B3C009A68184B1340BA689A420BD17B68002212
:100B4C00DA627B689B6A23F0030343F001027B6843
:100B5C009A6218E07B689B6A23F0120343F0100240
:100B6C007B689A627B68DB6A43F001027B68DA621D
:100B7C000123FB7507E07B689B6A43F010027B68DE
:100B8C009A620123FB75FB7D18461837BD4680BD64
:100B9C00FDF7E1FFFE0E1FFF80B584B000AF78605B
:100BAC000023FB737B6893F82430012B01D10223C3
:100BBC0098E07B68012283F82420786800F0D0FA52
:100BCC000346FB73FB7B002B40F087807B689B6AA2
:100BDC0023F4407323F0010343F480727B689A6220
:100BEC007B681B68414A934205D1414B5B6803F417
:100BFC007023002B15D17B689B6A23F480127B68D1
:100C0C009A627B681B685B6803F48063002B26D0B8
:100C1C007B689B6A23F4405343F480527B689A624E
:100C2C001DE07B689B6A43F480127B689A627B6848
:100C3C001B682F4A934204D07B681B682B4A934253
:100C4C000DD12B4B5B6803F48063002B07D07B68C2
:100C5C009B6A23F4405343F480527B689A627B680E
:100C6C009B6A03F48053002B06D07B68DB6A23F06D
:100C7C0006027B68DA6202E07B680022DA627B683B
:100C8C00002283F824207B681B686FF002021A6034
:100C9C007B681B689B6803F46023B3F5602F13D14A
:100CAC007B681B68114A934205D1114B5B6803F4B6
:100CBC007023002B08D17B681B689A687B681B68C3
:100CCC0042F4A0029A600CE07B681B689A687B680F
:100CDC001B6842F480129A6003E07B68002283F860
:100CEC002420FB7B18461037BD4680BD00280140F0
:100CFC000024014080B584B000AF78600023FB7302
:100D0C007B6893F82430012B01D102231AE07B6815
:100D1C00012283F82420786800F07CFA0346FB73E8
:100D2C00FB7B002B09D17B689B6A23F4885323F04F
:100D3C00010343F001027B689A627B68002283F80E
:100D4C002420FB7B18461037BD4680BD90B587B07C
:100D5C0000AF7860396000237B610023FB600023C7
:100D6C003B61FFF713FE78617B681B689B6803F49B
:100D7C008073002B0BD07B689B6A43F020027B684E
:100D8C009A627B68002283F824200123D3E07B68DD
:100D9C001B685B6803F48073002B31D17B681B6884
:100DAC00DB6A03F47003002B2AD121E03B68B3F11A
:100DBC00FF3F1DD03B68002B07D0FFF7E7FD024635
:100DCC007B69D31A3A689A4212D27B681B681B68FB
:100DDC0003F00203002B0BD17B689B6A43F00402E7
:100DEC007B689A627B68002283F824200323A2E0AC
:100DFC007B681B681B6803F00203002BD6D070E0E5
:100E0C004F4B1C68022001F051FE0346B4FBF3F279
:100E1C007B681B6819694B4B0B40002B18D17B6806
:100E2C001B68D968484B0B40002B11D17B681B68A1
:100E3C001969464B0B40002B08D17B681B68D9689D
:100E4C00434B0B40002B01D1142320E029231EE03F
:100E5C007B681B6819693D4B0B40002B06D17B68E6
:100E6C001B68D9683A4B0B40002B0DD07B681B6874
:100E7C001969384B0B40002B08D17B681B68D9686B
:100E8C00344B0B40002B01D1542300E0FC2302FB1C
:100E9C0003F33B6121E03B68B3F1FF3F1AD03B68A1
:100EAC00002B07D0FFF772FD02467B69D31A3A6814
:100EBC009A420FD2FB683A699A420BD97B689B6ABB
:100ECC0043F004027B689A627B68002283F824203A
:100EDC00032330E0FB680133FB60FB683A699A42FC
:100EEC00D9D87B681B686FF012021A607B689B6A0A
:100EFC0043F400727B689A627B681B689B6803F4FE
:100F0C006023B3F5602F15D17B681B7B002B11D1AF
:100F1C007B689B6A23F480727B689A627B689B6A0D
:100F2C0003F48053002B05D17B689B6A43F00102CC
:100F3C007B689A62002318461C37BD4690BD00BFE3
:100F4C000000002024499224244992009224491242
:100F5C00922449004992240080B483B000AF786099
:100F6C007B681B68DB6C18460C37BD4680BC704731
:100F7C0080B485B000AF786039600023FB73002328
:100F8C00BB607B6893F82430012B01D10223DCE099
:100F9C007B68012283F824203B685B68062B1CD8F5
:100FAC007B681B68596B3B685A6813469B0013445B
:100FBC00053B1F2202FA03F3DB4319403B68186818
:100FCC003B685A6813469B001344053B00FA03F236
:100FDC007B681B680A435A633CE03B685B680C2BDC
:100FEC001CD87B681B68196B3B685A6813469B00BE
:100FFC001344233B1F2202FA03F3DB4319403B68E3
:10100C0018683B685A6813469B001344233B00FA4C
:10101C0003F27B681B680A431A631BE07B681B683E
:10102C00D96A3B685A6813469B001344413B1F2204
:10103C0002FA03F3DB4319403B6818683B685A68B3
:10104C0013469B001344413B00FA03F27B681B6878
:10105C000A43DA623B681B68092B1CD97B681B6846
:10106C00D9683B681A6813465B0013441E3B072281
:10107C0002FA03F3DB4319403B6898683B681A6833
:10108C0013465B0013441E3B00FA03F27B681B689B
:10109C000A43DA6019E07B681B6819693B681A68B7
:1010AC0013465B001344072202FA03F3DB43194097
:1010BC003B6898683B681A6813465B00134400FA57
:1010CC0003F27B681B680A431A613B681B68102B90
:1010DC0003D03B681B68112B32D17B681B681D4AFF
:1010EC00934225D17B681B689B6803F40003002B9B
:1010FC0026D17B681B689A687B681B6842F40002E7
:10110C009A603B681B68102B1AD1134B1B68134A4F
:10111C00A2FB03239A0C13469B0013445B00BB6099
:10112C0002E0BB68013BBB60BB68002BF9D107E058
:10113C007B689B6A43F020027B689A620123FB73F5
:10114C007B68002283F82420FB7B18461437BD46AD
:10115C0080BC7047002401400000002083DE1B434C
:10116C0080B584B000AF78600023FB600023BB60C7
:10117C007B681B689B6803F00103012B40D07B68E4
:10118C001B689A687B681B6842F001029A601F4BCF
:10119C001B681F4AA2FB03239B0CBB6002E0BB68CD
:1011AC00013BBB60BB68002BF9D1FFF7EFFBF8608C
:1011BC001FE0FFF7EBFB0246FB68D31A022B18D992
:1011CC007B681B689B6803F00103012B11D07B68C3
:1011DC009B6A43F010027B689A627B68DB6A43F07F
:1011EC0001027B68DA627B68002283F824200123E9
:1011FC0007E07B681B689B6803F00103012BD8D1C7
:10120C00002318461037BD4680BD00BF00000020EB
:10121C0083DE1B4380B584B000AF78600023FB6095
:10122C007B681B689B6803F00103012B2ED17B6844
:10123C001B689A687B681B6822F001029A60FFF7B2
:10124C00A5FBF8601BE0FFF7A1FB0246FB68D31A75
:10125C00022B14D97B681B689B6803F00103012BDC
:10126C000DD17B689B6A43F010027B689A627B68A5
:10127C00DB6A43F001027B68DA62012307E07B68DA
:10128C001B689B6803F00103012BDCD0002318467C
:10129C001037BD4680BD000080B485B000AF7860CB
:1012AC007B6803F00703FB600C4BDB68BB60BA6820
:1012BC004FF6FF031340BB60FB681A02BB68134375
:1012CC0043F0BF6343F40033BB60044ABB68D36094
:1012DC0000BF1437BD4680BC704700BF00ED00E076
:1012EC0080B400AF044BDB681B0A03F007031846FD
:1012FC00BD4680BC704700BF00ED00E080B483B0F9
:10130C0000AF03463960FB7197F90730002B0ADBFD
:10131C003B68DAB20C4997F907301201D2B20B4490
:10132C0083F800230AE03B68DAB20849FB7903F042
:10133C000F03043B1201D2B20B441A7600BF0C37D8
:10134C00BD4680BC704700BF00E100E000ED00E04E
:10135C0080B489B000AFF860B9607A60FB6803F0C4
:10136C000703FB61FB69C3F10703042B28BF0423AC
:10137C00BB61FB690433062B02D9FB69033B00E01C
:10138C0000237B614FF0FF32BB6902FA03F3DA43AF
:10139C00BB681A407B699A404FF0FF317B6901FAB8
:1013AC0003F3D9437B680B40134318462437BD46DF
:1013BC0080BC704780B582B000AF78607B68013B21
:1013CC00B3F1807F01D301230FE00A4A7B68013B14
:1013DC0053600F214FF0FF30FFF790FF054B0022B9
:1013EC009A60044B07221A60002318460837BD4642
:1013FC0080BD00BF10E000E080B582B000AF786027
:10140C007868FFF749FF00BF0837BD4680BD80B53F
:10141C0086B000AF0346B9607A60FB7300237B6132
:10142C00FFF75EFF78617A68B9687869FFF790FF1B
:10143C00024697F90F3011461846FFF75FFF00BFC1
:10144C001837BD4680BD80B582B000AF7860786833
:10145C00FFF7B0FF034618460837BD4680BD0000B5
:10146C0080B48BB000AF7860396000237B620023BE
:10147C003B6261E101227B6A02FA03F3FB613B6888
:10148C001B68FA691340BB61BA69FB699A4240F068
:10149C0050813B685B68974A93425ED0954A934271
:1014AC0075D8954A934258D0934A93426FD8934A31
:1014BC00934252D0914A934269D8914A93424CD06C
:1014CC008F4A934263D88F4A934246D08D4A9342B7
:1014DC005DD8122B2AD8122B59D801A252F823F01E
:1014EC0067150008411500085315000895150008EC
:1014FC009B1500089B1500089B1500089B15000800
:10150C009B1500089B1500089B1500089B150008EF
:10151C009B1500089B1500089B1500089B150008DF
:10152C009B150008491500085D150008764A934282
:10153C0013D02CE03B68DB683B6229E03B68DB683E
:10154C0004333B6224E03B68DB6808333B621FE0FA
:10155C003B68DB680C333B621AE03B689B68002BF2
:10156C0002D104233B6213E03B689B68012B05D13D
:10157C0008233B627B68FA691A6109E008233B6225
:10158C007B68FA695A6103E000233B6200E000BF0C
:10159C00BB69FF2B01D87B6801E07B6804337B615E
:1015AC00BB69FF2B02D87B6A9B0002E07B6A083B7D
:1015BC009B003B617B691A680F213B6901FA03F3BD
:1015CC00DB431A40396A3B6901FA03F31A437B691E
:1015DC001A603B685B6803F08053002B00F0A98015
:1015EC004A4B9B69494A43F001039361474B9B6902
:1015FC0003F00103BB60BB68454A7B6A9B0802335E
:10160C0052F82330FB607B6A03F003039B000F222C
:10161C0002FA03F3DB43FA681340FB607B683D4A34
:10162C0093420DD07B683C4A934207D07B683B4A7F
:10163C00934201D1022304E0032302E0012300E0E2
:10164C0000237A6A02F0030292009340FA68134373
:10165C00FB602F497B6A9B080233FA6841F8232010
:10166C003B685B6803F48013002B06D02C4B9A6804
:10167C002B49BB6913438B6006E0294B9A68BB6905
:10168C00DB43274913408B603B685B6803F4001312
:10169C00002B06D0224BDA682149BB691343CB607F
:1016AC0006E01F4BDA68BB69DB431D491340CB6076
:1016BC003B685B6803F40033002B06D0184B5A6868
:1016CC001749BB6913434B6006E0154B5A68BB695D
:1016DC00DB43134913404B603B685B6803F4803376
:1016EC00002B1FD00E4B1A680D49BB6913430B60BE
:1016FC001FE000BF0000321000003110000022106B
:10170C000000211000001210000011100010024007
:10171C000000014000080140000C01400010014095
:10172C00000401400B4B1A68BB69DB4309491340A9
:10173C000B607B6A01337B623B681A687B6A22FA16
:10174C0003F3002B7FF496AE00BF00BF2C37BD46D1
:10175C0080BC70470004014080B485B000AF786055
:10176C000B467B807B689A687B881340002B02D0E9
:10177C000123FB7301E00023FB73FB7B184614373A
:10178C00BD4680BC704780B483B000AF78600B4618
:10179C007B8013467B707B78002B03D07A887B6828
:1017AC001A6103E07B881A047B681A6100BF0C374E
:1017BC00BD4680BC704780B485B000AF78600B46E6
:1017CC007B807B68DB68FB607A88FB6813401A04BB
:1017DC00FB68D9437B880B401A437B681A6100BFB6
:1017EC001437BD4680BC704780B584B000AF7860BC
:1017FC007B68002B01D101232BE17B6893F83D30F2
:10180C00DBB2002B06D17B68002283F83C20786881
:10181C00FEF7B2FD7B68242283F83D207B681B68B1
:10182C001A687B681B6822F001021A607B681B68CF
:10183C001A687B681B6842F400421A607B681B685C
:10184C001A687B681B6822F400421A6001F032F8B7
:10185C00F8607B685B68814A934207D8FB68804AD2
:10186C00934294BF01230023DBB206E0FB687D4A60
:10187C00934294BF01230023DBB2002B01D0012340
:10188C00E7E0FB68784AA2FB03239B0CBB607B68F8
:10189C001B685B6823F03F017B681B68BA680A43CE
:1018AC005A607B681B681B6A23F03F017B685B688E
:1018BC006A4A934202D8BB68013309E0BB684FF413
:1018CC00967202FB03F3694AA2FB03239B090133C3
:1018DC007A6812680B4313627B681B68DB6923F41C
:1018EC004F4222F0FF027B685B685C498B4219D83F
:1018FC00FB68591E7B685B685B00B1FBF3F3591CFA
:10190C0040F6FC730B40002B0AD0FB68591E7B6819
:10191C005B685B00B1FBF3F30133C3F30B0351E0E2
:10192C0004234FE07B689B68002B11D1FB68581E89
:10193C007B6859680B465B000B44B0FBF3F3013337
:10194C00C3F30B03002B0CBF01230023DBB212E00B
:10195C00FB68581E7B6859680B469B000B4499002A
:10196C000B44B0FBF3F30133C3F30B03002B0CBF9D
:10197C0001230023DBB2002B01D0012322E07B6882
:10198C009B68002B0ED1FB68581E7B6859680B4670
:10199C005B000B44B0FBF3F30133C3F30B0343F4D1
:1019AC0000430FE0FB68581E7B6859680B469B0090
:1019BC000B4499000B44B0FBF3F30133C3F30B035B
:1019CC0043F44043796809681343CB617B681B6817
:1019DC001B6823F0C0017B68DA697B681B6A1A43B9
:1019EC007B681B680A431A607B681B689B6823F43E
:1019FC00034323F0FF037A6811697A68D2681143B4
:101A0C007A6812680B4393607B681B68DB6823F071
:101A1C00FF017B685A697B689B691A437B681B686A
:101A2C000A43DA607B681B681A687B681B6842F0A3
:101A3C0001021A607B6800221A647B68202283F8FA
:101A4C003D207B6800221A637B68002283F83E20CD
:101A5C00002318461037BD4680BD00BFA08601008C
:101A6C007F841E00FF083D0083DE1B43D34D6210B4
:101A7C0080B588B002AFF8607A601A460B467B815D
:101A8C0013463B81FEF782FF7861FB6893F83D308B
:101A9C00DBB2202B40F0E0807B69009319230122FC
:101AAC007049F86800F064F90346002B01D002235A
:101ABC00D3E0FB6893F83C30012B01D10223CCE03E
:101ACC00FB68012283F83C20FB681B681B6803F051
:101ADC000103012B07D0FB681B681A68FB681B68A5
:101AEC0042F001021A60FB681B681A68FB681B68ED
:101AFC0022F400621A60FB68212283F83D20FB6807
:101B0C00102283F83E20FB6800221A64FB687A6876
:101B1C005A62FB683A895A85FB685B8D9AB2FB68FE
:101B2C001A85FB68504ADA6279897B693A6AF868E7
:101B3C0000F09CF80346002B01D001238DE000231C
:101B4C003B61FB681B685B693B61FB681B689B69BD
:101B5C003B613B6966E07A69396AF86800F022FA01
:101B6C000346002B0DD0FB681B6C042B07D1FB68C4
:101B7C001B681A68FB681B6842F400721A60012328
:101B8C006BE0FB685B6A1A78FB681B681A61FB6880
:101B9C005B6A5A1CFB685A62FB685B8D9BB2013B0B
:101BAC009AB2FB685A85FB681B8D013B9AB2FB68A5
:101BBC001A85FB681B685B6903F00403042B1BD1BB
:101BCC00FB681B8D002B17D0FB685B6A1A78FB68CF
:101BDC001B681A61FB685B6A5A1CFB685A62FB68DB
:101BEC005B8D9BB2013B9AB2FB685A85FB681B8DDF
:101BFC00013B9AB2FB681A857A69396AF86800F079
:101C0C0019FA0346002B0DD0FB681B6C042B07D173
:101C1C00FB681B681A68FB681B6842F400721A6048
:101C2C0001231AE0FB681B8D002B94D1FB681B6809
:101C3C001A68FB681B6842F400721A60FB68202269
:101C4C0083F83D20FB68002283F83E20FB680022CD
:101C5C0083F83C20002300E0022318461837BD46C9
:101C6C0080BD00BF020010000000FFFF80B588B0EF
:101C7C0002AFF8607A603B600B467B81FB68DB6AE5
:101C8C007B617B69082B06D07B69012B03D07B69B8
:101C9C0013F5803F08D1FB681B681A68FB681B684A
:101CAC0042F480721A600BE0FB681B6B122B07D19D
:101CBC00FB681B681A68FB681B6842F480721A6028
:101CCC003B6800937B6800224FF00111F86800F02C
:101CDC004FF80346002B0DD0FB681B681B6803F400
:101CEC008073B3F5807F03D1FB684FF400721A64E4
:101CFC00032335E0FB681B69B3F5804F08D17B8962
:101D0C00DBB21A46FB681B6802F0FE021A611BE08C
:101D1C007B89DB11DBB203F00603DBB263F00F034C
:101D2C00DAB2FB681B681A613B687A680E49F8687E
:101D3C0000F098F80346002B01D0012310E07B89BA
:101D4C00DAB2FB681B681A613B687A680749F86865
:101D5C0000F088F80346002B01D0012300E000239B
:101D6C0018461837BD4680BD08000100020001006E
:101D7C0080B584B000AFF860B9603B601346FB716E
:101D8C0048E03B68B3F1FF3F44D0FEF7FFFD02464D
:101D9C00BB69D31A3A689A4202D33B68002B39D1FB
:101DAC00BB681B0CDBB2012B0DD1FB681B685B699C
:101DBC00DA43BB6813409BB2002B0CBF01230023FA
:101DCC00DBB21A460CE0FB681B689B69DA43BB6804
:101DDC0013409BB2002B0CBF01230023DBB21A462D
:101DEC00FB799A4216D1FB6800221A63FB68202209
:101DFC0083F83D20FB68002283F83E20FB681B6CB7
:101E0C0043F02002FB681A64FB68002283F83C2034
:101E1C00012323E0BB681B0CDBB2012B0DD1FB684B
:101E2C001B685B69DA43BB6813409BB2002B0CBF89
:101E3C0001230023DBB21A460CE0FB681B689B698C
:101E4C00DA43BB6813409BB2002B0CBF0123002369
:101E5C00DBB21A46FB799A4293D00023184610370E
:101E6C00BD4680BD80B584B000AFF860B9607A60C3
:101E7C003B6071E0FB681B685B6903F48063B3F53E
:101E8C00806F23D1FB681B681A68FB681B6842F4DF
:101E9C0000721A60FB681B686FF480625A61FB6801
:101EAC0000221A63FB68202283F83D20FB68002285
:101EBC0083F83E20FB681B6C43F00402FB681A6439
:101ECC00FB68002283F83C20012367E07B68B3F1B8
:101EDC00FF3F41D0FEF75AFD02463B68D31A7A68A1
:101EEC009A4202D37B68002B36D1BB681B0CDBB249
:101EFC00012B0CD1FB681B685B69DA43BB68134090
:101F0C009BB2002B14BF01230023DBB20BE0FB6858
:101F1C001B689B69DA43BB6813409BB2002B14BF50
:101F2C0001230023DBB2002B16D0FB6800221A63BE
:101F3C00FB68202283F83D20FB68002283F83E20BA
:101F4C00FB681B6C43F02002FB681A64FB680022E0
:101F5C0083F83C20012321E0BB681B0CDBB2012B76
:101F6C000CD1FB681B685B69DA43BB6813409BB2FE
:101F7C00002B14BF01230023DBB20BE0FB681B68B2
:101F8C009B69DA43BB6813409BB2002B14BF01233F
:101F9C000023DBB2002B7FF46DAF00231846103703
:101FAC00BD4680BD80B584B000AFF860B9607A6082
:101FBC0034E0F86800F086F80346002B01D00123CA
:101FCC0034E0BB68B3F1FF3F28D0FEF7DFFC0246DC
:101FDC007B68D31ABA689A4202D3BB68002B1DD116
:101FEC00FB681B685B6903F08003802B16D0FB68D1
:101FFC0000221A63FB68202283F83D20FB68002234
:10200C0083F83E20FB681B6C43F02002FB681A64CB
:10201C00FB68002283F83C20012307E0FB681B6867
:10202C005B6903F08003802BC3D100231846103763
:10203C00BD4680BD80B584B000AFF860B9607A60F1
:10204C0034E0F86800F03EF80346002B01D0012381
:10205C0034E0BB68B3F1FF3F28D0FEF797FC024693
:10206C007B68D31ABA689A4202D3BB68002B1DD185
:10207C00FB681B685B6903F00403042B16D0FB6838
:10208C0000221A63FB68202283F83D20FB680022A3
:10209C0083F83E20FB681B6C43F02002FB681A643B
:1020AC00FB68002283F83C20012307E0FB681B68D7
:1020BC005B6903F00403042BC3D1002318461037CB
:1020CC00BD4680BD80B483B000AF78607B681B6870
:1020DC005B6903F48063B3F5806F1BD17B681B686D
:1020EC006FF480625A617B6800221A637B6820223D
:1020FC0083F83D207B68002283F83E207B681B6CB4
:10210C0043F004027B681A647B68002283F83C204D
:10211C00012300E0002318460C37BD4680BC7047F5
:10212C0080B586B000AF78607B68002B01D10123AD
:10213C0072E27B681B6803F00103002B00F08780C0
:10214C00924B5B6803F00C03042B0CD08F4B5B6839
:10215C0003F00C03082B12D18C4B5B6803F4803317
:10216C00B3F5803F0BD1894B1B6803F40033002B74
:10217C006CD07B685B68002B68D101234CE27B68D8
:10218C005B68B3F5803F06D1804B1B687F4A43F4F4
:10219C00803313602EE07B685B68002B0CD17B4B8B
:1021AC001B687A4A23F480331360784B1B68774A98
:1021BC0023F4802313601DE07B685B68B3F5A02FCC
:1021CC000CD1724B1B68714A43F4802313606F4B24
:1021DC001B686E4A43F4803313600BE06B4B1B6837
:1021EC006A4A23F480331360684B1B68674A23F4F4
:1021FC00802313607B685B68002B13D0FEF7C6FB53
:10220C00386108E0FEF7C2FB02463B69D31A642B27
:10221C0001D9032300E25D4B1B6803F40033002B50
:10222C00F0D014E0FEF7B2FB386108E0FEF7AEFB2D
:10223C0002463B69D31A642B01D90323ECE1534BBF
:10224C001B6803F40033002BF0D100E000BF7B6867
:10225C001B6803F00203002B63D04C4B5B6803F04C
:10226C000C03002B0BD0494B5B6803F00C03082BC1
:10227C001CD1464B5B6803F48033002B16D1434BC7
:10228C001B6803F00203002B05D07B681B69012B34
:10229C0001D00123C0E13D4B1B6823F0F8027B68A1
:1022AC005B69DB00394913430B603AE07B681B69BF
:1022BC00002B20D0364B01221A60FEF767FB3861E9
:1022CC0008E0FEF763FB02463B69D31A022B01D9E7
:1022DC000323A1E12D4B1B6803F00203002BF0D06C
:1022EC002A4B1B6823F0F8027B685B69DB002749EB
:1022FC0013430B6015E0264B00221A60FEF746FBD9
:10230C00386108E0FEF742FB02463B69D31A022B08
:10231C0001D9032380E11D4B1B6803F00203002B42
:10232C00F0D17B681B6803F00803002B3AD07B6864
:10233C009B69002B19D0174B01221A60FEF726FB64
:10234C00386108E0FEF722FB02463B69D31A022BE8
:10235C0001D9032360E10D4B5B6A03F00203002BF0
:10236C00F0D0012000F0CEFA1CE00A4B00221A60DB
:10237C00FEF70CFB38610FE0FEF708FB02463B69E9
:10238C00D31A022B08D9032346E100BF00100240E8
:10239C000000424280044242924B5B6A03F002030B
:1023AC00002BE9D17B681B6803F00403002B00F0C1
:1023BC00A6800023FB758B4BDB6903F08053002B4D
:1023CC000DD1884BDB69874A43F08053D361854B31
:1023DC00DB6903F08053BB60BB680123FB75824B48
:1023EC001B6803F48073002B18D17F4B1B687E4A4B
:1023FC0043F480731360FEF7C9FA386108E0FEF706
:10240C00C5FA02463B69D31A642B01D9032303E1B5
:10241C00754B1B6803F48073002BF0D07B68DB6872
:10242C00012B06D16F4B1B6A6E4A43F001031362FA
:10243C002DE07B68DB68002B0CD16A4B1B6A694A68
:10244C0023F001031362674B1B6A664A23F00403F3
:10245C0013621CE07B68DB68052B0CD1614B1B6A9B
:10246C00604A43F0040313625E4B1B6A5D4A43F0FF
:10247C00010313620BE05B4B1B6A5A4A23F0010306
:10248C001362584B1B6A574A23F0040313627B6890
:10249C00DB68002B15D0FEF779FA38610AE0FEF7FD
:1024AC0075FA02463B69D31A41F28832934201D93C
:1024BC000323B1E04B4B1B6A03F00203002BEED05D
:1024CC0014E0FEF763FA38610AE0FEF75FFA0246A1
:1024DC003B69D31A41F28832934201D903239BE022
:1024EC00404B1B6A03F00203002BEED1FB7D012B4A
:1024FC0005D13C4BDB693B4A23F08053D3617B68AD
:10250C00DB69002B00F08780364B5B6803F00C0313
:10251C00082B61D07B68DB69022B46D1334B002240
:10252C001A60FEF733FA386108E0FEF72FFA02461C
:10253C003B69D31A022B01D903236DE0294B1B688D
:10254C0003F00073002BF0D17B681B6AB3F5803F5E
:10255C0008D1244B5B6823F400327B689B682149CB
:10256C0013434B601F4B5B6823F474127B68196A2E
:10257C007B685B6A0B431B4913434B601B4B01226B
:10258C001A60FEF703FA386108E0FEF7FFF902461D
:10259C003B69D31A022B01D903233DE0114B1B6875
:1025AC0003F00073002BF0D035E0104B00221A60C2
:1025BC00FEF7ECF9386108E0FEF7E8F902463B69F2
:1025CC00D31A022B01D9032326E0064B1B6803F018
:1025DC000073002BF0D11EE07B68DB69012B07D167
:1025EC00012319E0001002400070004060004242DC
:1025FC000B4B5B68FB60FB6803F480327B681B6AE7
:10260C009A4206D1FB6803F470127B685B6A9A42AB
:10261C0001D0012300E0002318461837BD4680BDC9
:10262C000010024080B584B000AF786039607B68E0
:10263C00002B01D10123D0E06A4B1B6803F0070388
:10264C003A689A4210D9674B1B6823F00702654918
:10265C003B6813430B60634B1B6803F007033A683A
:10266C009A4201D00123B8E07B681B6803F0020397
:10267C00002B20D07B681B6803F00403002B05D0D3
:10268C00594B5B68584A43F4E06353607B681B68A2
:10269C0003F00803002B05D0534B5B68524A43F4FC
:1026AC0060535360504B5B6823F0F0027B689B686F
:1026BC004D4913434B607B681B6803F00103002BEF
:1026CC0040D07B685B68012B07D1474B1B6803F438
:1026DC000033002B15D101237FE07B685B68022B54
:1026EC0007D1414B1B6803F00073002B09D1012368
:1026FC0073E03D4B1B6803F00203002B01D1012357
:10270C006BE0394B5B6823F003027B685B683649EE
:10271C0013434B60FEF73AF9F8600AE0FEF736F91E
:10272C000246FB68D31A41F28832934201D9032343
:10273C0053E02D4B5B6803F00C027B685B689B00DD
:10274C009A42EBD1274B1B6803F007033A689A4275
:10275C0010D2244B1B6823F0070222493B68134319
:10276C000B60204B1B6803F007033A689A4201D0B8
:10277C00012332E07B681B6803F00403002B08D0B4
:10278C00194B5B6823F4E0627B68DB6816491343E2
:10279C004B607B681B6803F00803002B09D0124BBD
:1027AC005B6823F460527B681B69DB000E491343A2
:1027BC004B6000F021F802460B4B5B681B0903F0E1
:1027CC000F030A49CB5C22FA03F3094A1360094B45
:1027DC001B681846FEF798F8002318461037BD46BC
:1027EC0080BD00BF0020024000100240144B0008C6
:1027FC00000000200400002080B487B000AF00234C
:10280C00FB600023BB6000237B6100237B60002303
:10281C003B611E4B5B68FB60FB6803F00C03042BF5
:10282C0002D0082B03D027E0194B3B6127E0FB6853
:10283C009B0C03F00F03174AD35C7B60FB6803F41B
:10284C008033002B10D0114B5B685B0C03F0010341
:10285C00114AD35CBB607B680D4A03FB02F2BB6878
:10286C00B2FBF3F37B6104E07B680C4A02FB03F3DD
:10287C007B617B693B6102E0054B3B6100BF3B69BF
:10288C0018461C37BD4680BC704700BF0010024084
:10289C0000127A002C4B00083C4B000800093D004C
:1028AC0080B400AF024B1B681846BD4680BC704715
:1028BC000000002080B500AFFFF7F2FF0246054B89
:1028CC005B681B0A03F007030349CB5C22FA03F392
:1028DC00184680BD00100240244B000880B500AFA4
:1028EC00FFF7DEFF0246054B5B68DB0A03F00703CC
:1028FC000349CB5C22FA03F3184680BD001002405A
:10290C00244B000880B485B000AF78600A4B1B687C
:10291C000A4AA2FB03235B0A7A6802FB03F3FB60FF
:10292C0000BFFB685A1EFA60002BF9D100BF00BF34
:10293C001437BD4680BC704700000020D34D621098
:10294C0080B586B000AF786000233B610023FB604C
:10295C007B681B6803F00103002B7DD00023FB7503
:10296C004F4BDB6903F08053002B0DD14C4BDB69D3
:10297C004B4A43F08053D361494BDB6903F08053DE
:10298C00BB60BB680123FB75464B1B6803F480736B
:10299C00002B18D1434B1B68424A43F480731360DD
:1029AC00FDF7F4FF386108E0FDF7F0FF02463B69E4
:1029BC00D31A642B01D903236DE03A4B1B6803F443
:1029CC008073002BF0D0364B1B6A03F44073FB6012
:1029DC00FB68002B2ED07B685B6803F44073FA68AD
:1029EC009A4227D02E4B1B6A23F44073FB602E4B6C
:1029FC0001221A602C4B00221A60294AFB681362D0
:102A0C00FB6803F00103002B14D0FDF7BFFF386106
:102A1C000AE0FDF7BBFF02463B69D31A41F288324C
:102A2C00934201D9032336E01D4B1B6A03F00203CA
:102A3C00002BEED01A4B1B6A23F440727B685B6848
:102A4C00174913430B62FB7D012B05D1144BDB693A
:102A5C00134A23F08053D3617B681B6803F0020395
:102A6C00002B08D00E4B5B6823F440427B689B68BC
:102A7C000B4913434B607B681B6803F01003002B5E
:102A8C0008D0074B5B6823F480027B68DB68044941
:102A9C0013434B60002318461837BD4680BD00BF5A
:102AAC0000100240007000404004424280B588B0E3
:102ABC0000AF786000237B610023FB6100233B6146
:102ACC000023FB600023BB617B68102B0AD07B6862
:102ADC00102B00F28A807B68012B45D07B68022B7F
:102AEC0075D082E0464B5B68FB60454B1B6803F07E
:102AFC008073002B7BD0FB689B0C03F00F03414AC7
:102B0C00D35C3B61FB6803F48033002B15D03C4B4A
:102B1C005B685B0C03F001033B4AD35C7B61FB6895
:102B2C0003F48033002B0DD0384A7B69B2FBF3F2EF
:102B3C003B6902FB03F3FB6104E03B69344A02FB93
:102B4C0003F3FB612E4B5B6803F48003B3F5800F3A
:102B5C0002D1FB69BB614AE0FB695B002D4AA2FB19
:102B6C0003235B08BB6142E0254B1B6AFB60FB68DF
:102B7C0003F44073B3F5807F08D1FB6803F00203C4
:102B8C00002B03D04FF40043BB611FE0FB6803F440
:102B9C004073B3F5007F09D1194B5B6A03F0020354
:102BAC00002B03D049F64043BB610FE0FB6803F4F4
:102BBC004073B3F5407F1CD1114B1B6803F40033F9
:102BCC00002B16D04FF22443BB6112E011E0FFF74B
:102BDC0085FE02460A4B5B689B0B03F00303013333
:102BEC005B00B2FBF3F3BB6104E000BF02E000BF8B
:102BFC0000E000BFBB6918462037BD4680BD00BF52
:102C0C0000100240404B0008504B000800127A00A4
:102C1C0000093D00ABAAAAAA80B582B000AF7860CB
:102C2C007B68002B01D1012341E07B6893F83D3098
:102C3C00DBB2002B06D17B68002283F83C2078683D
:102C4C00FDF732FD7B68022283F83D207B681A6811
:102C5C007B6804331946104600F03AF97B68012270
:102C6C0083F846207B68012283F83E207B68012292
:102C7C0083F83F207B68012283F840207B68012287
:102C8C0083F841207B68012283F842207B68012273
:102C9C0083F843207B68012283F844207B6801225F
:102CAC0083F845207B68012283F83D2000231846D9
:102CBC000837BD4680BD000080B485B000AF786099
:102CCC007B6893F83D30DBB2012B01D001232DE062
:102CDC007B68022283F83D207B681B68164A93426E
:102CEC0009D07B681B68B3F1804F04D07B681B68EC
:102CFC00124A934211D17B681B689B6803F007034F
:102D0C00FB60FB68062B10D07B681B681A687B681D
:102D1C001B6842F001021A6007E07B681B681A68A6
:102D2C007B681B6842F001021A60002318461437B6
:102D3C00BD4680BC704700BF002C01400004004021
:102D4C0080B584B000AF786039600023FB737B687A
:102D5C0093F83C30012B01D10223B4E07B680122B3
:102D6C0083F83C207B68022283F83D207B681B683B
:102D7C009B68BB60BB6823F07703BB60BB6823F424
:102D8C007F43BB607B681B68BA689A603B681B68B2
:102D9C00B3F5005F3ED0B3F5005F00F28780B3F56A
:102DAC00805F00F08680B3F5805F7FD8702B1AD0DF
:102DBC00702B7BD8602B50D0602B77D8502B3CD00D
:102DCC00502B73D8402B58D0402B6FD8302B64D05D
:102DDC00302B6BD8202B60D0202B67D8002B5CD0ED
:102DEC00102B5AD062E07B6818683B6899683B6886
:102DFC005A683B68DB6800F046F97B681B689B6887
:102E0C00BB60BB6843F07703BB607B681B68BA6828
:102E1C009A604FE07B6818683B6899683B685A6811
:102E2C003B68DB6800F02FF97B681B689A687B684D
:102E3C001B6842F480429A603CE07B6818683B68EF
:102E4C0059683B68DB681A4600F0A6F87B681B687B
:102E5C005021184600F0FDF82CE07B6818683B68A0
:102E6C0059683B68DB681A4600F0C4F87B681B683D
:102E7C006021184600F0EDF81CE07B6818683B6890
:102E8C0059683B68DB681A4600F086F87B681B685B
:102E9C004021184600F0DDF80CE07B681A683B68AE
:102EAC001B681946104600F0D4F803E00123FB73AD
:102EBC0000E000BF7B68012283F83D207B68002284
:102ECC0083F83C20FB7B18461037BD4680BD0000C4
:102EDC0080B485B000AF786039607B681B68FB609C
:102EEC007B682B4A934207D07B68B3F1804F03D0A9
:102EFC007B68284A934208D1FB6823F07003FB607F
:102F0C003B685B68FA681343FB607B68204A93421A
:102F1C0007D07B68B3F1804F03D07B681D4A934286
:102F2C0008D1FB6823F44073FB603B68DB68FA68EC
:102F3C001343FB60FB6823F080023B685B6913431F
:102F4C00FB607B68FA681A603B689A687B68DA6297
:102F5C003B681A687B689A627B680D4A934203D17E
:102F6C003B681A697B681A637B6801225A617B682B
:102F7C001B6903F00103002B05D07B681B6923F050
:102F8C0001027B681A6100BF1437BD4680BC7047D4
:102F9C00002C01400004004080B487B000AFF86002
:102FAC00B9607A60FB681B6A7B61FB681B6A23F063
:102FBC000102FB681A62FB689B693B613B6923F069
:102FCC00F0033B617B681B013A6913433B617B69EE
:102FDC0023F00A037B617A69BB6813437B61FB684E
:102FEC003A699A61FB687A691A6200BF1C37BD4660
:102FFC0080BC704780B487B000AFF860B9607A606D
:10300C00FB681B6A7B61FB681B6A23F01002FB6880
:10301C001A62FB689B693B613B6923F470433B611B
:10302C007B681B033A6913433B617B6923F0A00364
:10303C007B61BB681B017A6913437B61FB683A694E
:10304C009A61FB687A691A6200BF1C37BD4680BC66
:10305C00704780B485B000AF786039607B689B683E
:10306C00FB60FB6823F07003FB603A68FB6813435A
:10307C0043F00703FB607B68FA689A6000BF143763
:10308C00BD4680BC704780B487B000AFF860B960B3
:10309C007A603B60FB689B687B617B6923F47F43B0
:1030AC007B613B681A027B681A43BB6813437A69DD
:1030BC0013437B61FB687A699A6000BF1C37BD467D
:1030CC0080BC704780B485B000AF786039607B6895
:1030DC0093F83C30012B01D1022341E07B680122A3
:1030EC0083F83C207B68022283F83D207B681B68B8
:1030FC005B68FB607B681B689B68BB60FB6823F0AC
:10310C007003FB603B681B68FA681343FB607B68C9
:10311C001B68FA685A607B681B68144A934209D092
:10312C007B681B68B3F1804F04D07B681B68104A26
:10313C0093420CD1BB6823F08003BB603B685B6897
:10314C00BA681343BB607B681B68BA689A607B687B
:10315C00012283F83D207B68002283F83C20002369
:10316C0018461437BD4680BC704700BF002C014088
:10317C000004004080B582B000AF78607B68002B03
:10318C0001D1012342E07B6893F84130DBB2002B84
:10319C0006D17B68002283F840207868FDF7F4FAAA
:1031AC007B68242283F841207B681B68DA687B6883
:1031BC001B6822F40052DA60786800F071F97B68C1
:1031CC001B681A697B681B6822F490421A617B6841
:1031DC001B685A697B681B6822F02A025A617B685B
:1031EC001B68DA687B681B6842F40052DA607B6803
:1031FC0000225A647B68202283F841207B682022BD
:10320C0083F842207B6800225A6300231846083753
:10321C00BD4680BD80B58AB002AFF860B9603B6036
:10322C001346FB8000237B61FB6893F84130DBB2D3
:10323C00202B75D1BB68002B02D0FB88002B01D151
:10324C0001236EE0FB6800225A64FB68212283F89C
:10325C004120FDF79BFB7861FB68FA889A84FB6838
:10326C00FA88DA84FB689B68B3F5805F08D1FB6849
:10327C001B69002B04D10023FB61BB68BB6103E01D
:10328C00BB68FB610023BB612EE03B6800937B694C
:10329C0000228021F86800F048F80346002B05D086
:1032AC00FB68202283F8412003233AE0FB69002BC2
:1032BC000BD1BB691B881A46FB681B68C2F308025A
:1032CC005A60BB690233BB6107E0FB691A78FB6883
:1032DC001B685A60FB690133FB61FB68DB8C9BB29A
:1032EC00013B9AB2FB68DA84FB68DB8C9BB2002B47
:1032FC00CBD13B6800937B6900224021F86800F039
:10330C0014F80346002B05D0FB68202283F84120DB
:10331C00032306E0FB68202283F84120002300E011
:10332C00022318462037BD4680BD80B586B000AF5D
:10333C00F860B9603B601346FB713BE03B6AB3F14C
:10334C00FF3F37D0FDF722FB02463B68D31A3A6A9F
:10335C009A4202D33B6A002B01D103233AE0FB686B
:10336C001B68DB6803F00403002B23D0BB68802BA5
:10337C0020D0BB68402B1DD0FB681B681B6803F07A
:10338C000803082B16D100237B61FB681B681B68A4
:10339C007B61FB681B685B687B617B69F86800F08C
:1033AC001DF8FB6808225A64FB68002283F8402051
:1033BC0001230FE0FB681B681A68BB681340BA68EE
:1033CC009A420CBF01230023DBB21A46FB799A42C6
:1033DC00B4D0002318461837BD4680BD80B495B0D4
:1033EC0000AF78607B681B680C337B637B6B53E8A6
:1033FC00003F3B633B6B23F49073FB647B681B685F
:10340C000C33FA6C3A64FB63F96B3A6C41E80023B9
:10341C00BB63BB6B002BE5D17B681B6814333B6231
:10342C003B6A53E8003FFB61FB6923F00103BB647B
:10343C007B681B681433BA6CFA62BB62B96AFA6AAD
:10344C0041E800237B627B6A002BE5D17B681B6B18
:10345C00012B19D17B681B680C33FB60FB6853E8AC
:10346C00003FBB60BB6823F010037B647B681B6868
:10347C000C337A6CBA617B617969BA6941E80023D3
:10348C003B613B69002BE5D17B68202283F842200D
:10349C007B6800221A6300BF5437BD4680BC70475E
:1034AC0080B584B000AF78607B681B681B6923F41F
:1034BC0040517B68DA687B681B680A431A617B6839
:1034CC009A687B681B691A437B685B691343BB6012
:1034DC007B681B68DB6823F4B05323F00C037A6819
:1034EC001268B9680B43D3607B681B685B6923F473
:1034FC0040717B689A697B681B680A435A617B68D8
:10350C001B682C4A934203D1FFF7E8F9F86002E0FC
:10351C00FFF7D0F9F860FA6813469B0013449A0041
:10352C001A447B685B689B00B2FBF3F3224AA2FB54
:10353C0003235B091901FA6813469B0013449A0094
:10354C001A447B685B689B00B2FBF3F21A4BA3FB3B
:10355C0002035B09642000FB03F3D31A1B01323313
:10356C00154AA2FB03235B0903F0F0031944FA6824
:10357C0013469B0013449A001A447B685B689B00BB
:10358C00B2FBF3F20C4BA3FB02035B09642000FBC0
:10359C0003F3D31A1B013233074AA2FB03235B0943
:1035AC0003F00F027B681B680A449A6000BF103757
:1035BC00BD4680BD003801401F85EB5180B582B0FF
:1035CC0000AF00F0FDF90346FB7100F005FA03466D
:1035DC00BB71364B1B78012B20D1FB79002B1DD1F5
:1035EC001420FDF7DDF900F0EBF90346002B15D1A3
:1035FC002F4800F08FFC2F4B1B68B3F5257F06D1AD
:10360C002C4B0A221A602C4800F084FC06E0294B53
:10361C004FF425721A60294800F07CFC284B1B786B
:10362C00012B39D1BB79002B36D11420FDF7B8F919
:10363C0000F0D2F90346002B2ED1224800F06AFC90
:10364C00214B1B780133DAB21F4B1A701E4B1B78BF
:10365C00032B02D91C4B00221A701B4B1B78002B1E
:10366C0003D11A4800F056FC16E0174B1B78012BBF
:10367C0003D1174800F04EFC0EE0134B1B78022BC5
:10368C0003D1144800F046FC06E00F4B1B78032BCB
:10369C0002D1114800F03EFC044AFB791370084A31
:1036AC00BB79137000BF0837BD4680BD10000020E9
:1036BC00EC4800080C0000200849000824490008C8
:1036CC001100002040490008F80100205C49000866
:1036DC007849000890490008A849000880B59AB0BC
:1036EC0000AF00F0FBFA03461F4A13601E4B1A682A
:1036FC001E4B1B689A4203D91D4B01221A7002E023
:10370C001B4B00221A701A4B1B78002B02D000F0B6
:10371C006FF901E000F078F9164B1B78381D164A4A
:10372C00642100F00DFC3B1D184600F0F7FA114B1C
:10373C005B78381D114A642100F002FC3B1D1846D1
:10374C0000F0ECFA084B1B68381D0D4A642100F0A0
:10375C00F7FB3B1D184600F0E1FA0A4800F0DEFAD0
:10376C0000BF6837BD4680BDE40100200C0000207E
:10377C00E8010020EC010020C0490008D0490008F5
:10378C00E4490008FC49000880B500AF144B002246
:10379C001A70144800F0BEFB134800F0BBFB134832
:1037AC0000F0B8FB124800F0B9FA00F09BFB00F0F7
:1037BC002BF900F08DFA00F027FB0021002000F01F
:1037CC0072FB0C4800F05AFB0021012000F06BFB4F
:1037DC00094800F053FB0948FFF76EFA00BF80BDA3
:1037EC00F8010020184A0008384A00085C4A000812
:1037FC00804A0008A04A0008B04A000808010020CE
:10380C0080B590B000AFFDF7C1F802465D4B1B6868
:10381C00D31AB3F5FA6F1CD3FDF7B8F80346594A1F
:10382C001360594B00229A70574800F045F9034633
:10383C0087F83F3097F83F30012B0AD097F83F308C
:10384C003846524A282100F07BFB3B46184600F0D4
:10385C0061FBFDF79BF802464D4B1B68D31AB3F581
:10386C00FA7F06D3FDF792F80346494A136000F03D
:10387C0045FBFFF7A3FEFFF731FFFDF787F8024684
:10388C00444B1B68D31AB3F5FA7F73D3FDF77EF85C
:10389C000346404A1360012000F056FA0220FDF75F
:1038AC007FF83D4B1B78002B0ED10021002000F03F
:1038BC00FAFA3A4800F0E2FA0021012000F0F3FA9B
:1038CC00374800F0DBFA55E0334B1B78012B18D14D
:1038DC000021002000F0E7FA324800F0CFFA324B1A
:1038EC001B6807F12800314A142100F029FB002144
:1038FC00012000F0D8FA07F12803184600F0BEFAB0
:10390C0038E0254B1B78022B18D10021002000F049
:10391C00CAFA274800F0B2FA1B4B1B7807F12800B3
:10392C00244A142100F00CFB0021012000F0BBFA0A
:10393C0007F12803184600F0A1FA1BE0164B1B7880
:10394C00032B17D10021002000F0ADFA1A4800F02B
:10395C0095FA0D4B5B7807F12800184A142100F0FA
:10396C00EFFA0021012000F09EFA07F12803184617
:10397C0000F084FA4FF44870FDF712F800BF40379E
:10398C00BD4680BDF0010020EC010020B84A0008C3
:10399C00F4010020FC010020F8010020A04A0008DE
:1039AC00B04A0008D04A0008E4010020E04A0008B0
:1039BC00E84A0008F84A0008004B00080C4B0008C5
:1039CC0080B500AF4FF480510248FDF7C5FE0346A9
:1039DC00184680BD000C014080B500AF4FF400517B
:1039EC000248FDF7B9FE0346184680BD000C0140A5
:1039FC0080B500AF012201210248FDF7C4FE00BFD3
:103A0C0080BD00BF000C014080B500AF0022012139
:103A1C000248FDF7B8FE00BF80BD00BF000C01409E
:103A2C0080B584B000AF3B4600221A605A609A60A1
:103A3C00DA6002233B6011237B600223FB603B4670
:103A4C0019460348FDF70CFD00BF1037BD4680BD7D
:103A5C000008014080B584B000AF3B4600221A60DC
:103A6C005A609A60DA6002233B6000237B6001237A
:103A7C00BB603B4619460348FDF7F2FC00BF10370C
:103A8C00BD4680BD0008014080B483B000AF034642
:103A9C00FB80084B1B6800225A6200BF054B1B6859
:103AAC005A6AFB889A42F9D300BF00BF0C37BD4657
:103ABC0080BC70470801002080B586B000AF7860EC
:103ACC000023FB750023BB6000233B730023BB75F5
:103ADC00FFF7A6FF002202216348FDF754FE1420D5
:103AEC00FCF75EFF012202215F48FDF74CFE282007
:103AFC00FFF7CAFFFFF7AEFF64233B610AE001202A
:103B0C00FFF7C2FF3B69013B3B613B69002B01D1D5
:103B1C000223A5E002215448FDF71EFE0346012BAB
:103B2C00EDD064233B610AE00120FFF7ADFF3B6958
:103B3C00013B3B613B69002B01D1032390E0022147
:103B4C004948FDF709FE0346002BEDD064233B6189
:103B5C000AE00120FFF798FF3B69013B3B613B69A1
:103B6C00002B01D104237BE002213F48FDF7F4FD3B
:103B7C000346012BEDD057E064233B610AE00120A2
:103B8C00FFF782FF3B69013B3B613B69002B01D195
:103B9C00052365E002213448FDF7DEFD0346002BCA
:103BAC00EDD0324B1B6800225A6206E02F4B1B688B
:103BBC005B6A642B01D9062352E002212A48FDF7E7
:103BCC00CBFD0346012BF1D0BB7D18333B4413F8DE
:103BDC00102CBB7D5200D2B218333B4403F8102C8E
:103BEC00224B1B685B6A322B8CBF01230023DBB298
:103BFC001946BB7D18333B4413F8103C5AB24BB2F8
:103C0C0013435AB2BB7DD2B218333B4403F8102C89
:103C1C00FB7D0133FB75FB7D03F00703DBB2002B4F
:103C2C0002D1BB7D0133BB75FB7D272BA4D93A7B1D
:103C3C00397A7B7A0B44D9B2BB7A0B44D9B2FB7A72
:103C4C000B44DBB29A4201D0072309E03A7A7B6835
:103C5C005A70BA7A7B681A707B6801229A700123B9
:103C6C0018461837BD4680BD0008014008010020E9
:103C7C0080B582B000AF00237B6000233B6017E06F
:103C8C001148FCF789FF4FF0FF310F48FDF75EF844
:103C9C000D48FDF761F902467B6813447B600A48C6
:103CAC00FDF728F80520FCF77BFE3B6801333B60F1
:103CBC003B68092BE4DD7B68044AA2FB0323DB0889
:103CCC0018460837BD4680BD80000020CDCCCCCC3A
:103CDC0080B400AF00BFBD4680BC704780B582B0D9
:103CEC0000AFFFF7C5FF38603B684FF47A7202FBF8
:103CFC0003F3094A82FB03121A44D212DB17D31ABC
:103D0C00C83B7B607B68002B01DA00237B607B68FF
:103D1C0018460837BD4680BD8100088080B582B04A
:103D2C0000AF78607868FCF70BFA03469AB24FF054
:103D3C00FF3379680348FFF76DFA00BF0837BD46BB
:103D4C0080BD00BF5001002080B586B002AF034695
:103D5C00FB71FB7923F00F03FB73FB791B01BB7326
:103D6C00FB7B43F00C03DBB23B72FB7B43F00803A1
:103D7C00DBB27B72BB7B43F00C03DBB2BB72BB7B55
:103D8C0043F00803DBB2FB7207F1080264230093D3
:103D9C0004234E210348FDF76BFE00BF1037BD46D0
:103DAC0080BD00BFB000002080B586B002AF0346D6
:103DBC00FB71FB7923F00F03FB73FB791B01BB73C6
:103DCC00FB7B43F00D03DBB23B72FB7B43F009033F
:103DDC00DBB27B72BB7B43F00D03DBB2BB72BB7BF4
:103DEC0043F00903DBB2FB7207F108026423009372
:103DFC0004234E210348FDF73BFE00BF1037BD46A0
:103E0C0080BD00BFB000002080B500AF3220FCF7B1
:103E1C00C7FD3020FFF798FF0520FCF7C1FD3020CF
:103E2C00FFF792FF0120FCF7BBFD3020FFF78CFF62
:103E3C000A20FCF7B5FD2020FFF786FF0A20FCF7CF
:103E4C00AFFD2820FFF780FF0120FCF7A9FD08201B
:103E5C00FFF77AFF0120FCF7A3FD0120FFF774FFA9
:103E6C000220FCF79DFD0620FFF76EFF0120FCF7FA
:103E7C0097FD0C20FFF768FF00BF80BD80B582B0B6
:103E8C0000AF786006E07B685A1C7A601B78184695
:103E9C00FFF78AFF7B681B78002BF4D100BF00BFB3
:103EAC000837BD4680BD80B582B000AF7860396000
:103EBC007B68002B03D07B68012B05D009E03B68A5
:103ECC0043F080033B6004E03B6843F0C0033B607D
:103EDC0000BF3B68DBB21846FFF736FF00BF083760
:103EEC00BD4680BD80B500AF00224FF48071024802
:103EFC00FDF749FC00BF80BD0008014080B500AF54
:103F0C004FF480710248FDF756FC00BF80BD00BF26
:103F1C000008014080B582B000AF78607868FCF78B
:103F2C000FF903469AB24FF0FF3379680348FFF755
:103F3C0071F900BF0837BD4680BD00BF9801002055
:103F4C000CB430B5174B0C1E1D689DB008DA8B23D2
:103F5C004FF0FF302B601DB0BDE8304002B0704711
:103F6C004FF40273ADF814300CBF234604F1FF3349
:103F7C00049307934FF6FF7302900690ADF816303A
:103F8C00284621AB209A02A9019300F093F9431C17
:103F9C00BCBF8B232B60002CDDD00022029B1A703F
:103FAC00D9E700BF1400002003460244934200D11D
:103FBC00704703F8011BF9E7014B1868704700BF05
:103FCC001400002070B500260C4D0D4C641BA41081
:103FDC00A64209D100F078FC00260A4D0A4C641B5D
:103FEC00A410A64205D170BD55F8043B9847013684
:103FFC00EEE755F8043B98470136F2E7904B000882
:10400C00904B0008904B0008944B00087047704789
:10401C0038B50546002940D051F8043C0C1F002B44
:10402C00B8BFE41800F0DEF81C4A136833B96360BB
:10403C0014602846BDE8384000F0DAB8A34208D92D
:10404C00206821188B4201BF19685B680918216030
:10405C00EDE71A465B680BB1A342FAD91168501808
:10406C00A0420BD120680144501883421160E0D16A
:10407C0018685B68084410605360DAE702D90C23B7
:10408C002B60D6E7206821188B4201BF19685B684A
:10409C000918216063605460CBE738BD44030020ED
:1040AC0070B50F4E0C463168054611B900F0AAFBED
:1040BC0030602146284600F0A5FB431C03D14FF08D
:1040CC00FF34204670BDC41C24F00304A042F8D079
:1040DC00211A284600F096FB0130F2D1EFE700BF21
:1040EC00400300202DE9F843CD1C25F003050835CD
:1040FC000C2D38BF0C25002D064601DBA94204D936
:10410C000C2333600020BDE8F883DFF8D48000F086
:10411C0069F8D8F800301C4644BB29463046FFF7F6
:10412C00BFFF431C044658D1D8F800402746002F47
:10413C0043D1002C4BD023683946304604EB03099D
:10414C0000F060FB814542D1216830466D1A29464A
:10415C00FFF7A6FF01303AD023682B442360D8F830
:10416C0000305A6862BBC8F800700FE02268521B1E
:10417C0020D40B2A17D96119A342256018BF5960A6
:10418C00636808BFC8F8001062514B60304600F0FD
:10419C002FF804F10B00231D20F00700C21A1CBFDE
:1041AC001B1AA350AFE76268A3420CBFC8F80020EB
:1041BC005A60EBE723466468AEE73C467F68B6E797
:1041CC001A465B68A342FBD100235360DEE70C2345
:1041DC003046336000F00CF894E70560D6E700BF7A
:1041EC00440300200148FFF711BF00BF3C0300202F
:1041FC000148FFF70CBF00BF3C0300202DE9F0473E
:10420C001F468E688246BE420C4690460B682DD8DF
:10421C00B1F90C2012F4906F26D06569096905EB91
:10422C004505A3EB010905EBD5757B1C4B446D10C3
:10423C009D4238BF1D46530527D52946FFF752FF2F
:10424C00064660B34A46216900F0FAFAA38923F4C2
:10425C00906343F08003A38126614E4426603E4662
:10426C006561A5EB0905A560BE4200D93E46324604
:10427C004146206800F0ACFA0020A3689B1BA360A9
:10428C00236833442360BDE8F0872A4600F0E6FA41
:10429C0006460028E0D150462169FFF7B9FE0C23F1
:1042AC00CAF80030A3894FF0FF3043F04003A381DC
:1042BC00E9E700002DE9F04F98468B8907461B066D
:1042CC000D4614469DB010D50B6973B94021FFF70C
:1042DC0009FF2860286130B90C233B604FF0FF3098
:1042EC001DB0BDE8F08F40236B61002309932023A0
:1042FC008DF8293030234FF00109CDF80C80DFF810
:10430C0098818DF82A3023469A4613F8012B0AB16E
:10431C00252AF9D1BAEB040B0BD05B462246294671
:10432C003846FFF76BFF013000F0A780099A5A441A
:10433C0009929AF80030002B00F09F8000234FF078
:10434C00FF32CDE905230AF1010A049307938DF896
:10435C0053301A935446052214F8011B4E4800F0B2
:10436C0061FA049AD8B9D00644BF20238DF8533093
:10437C00110744BF2B238DF853309AF800302A2BA9
:10438C0015D0544600204FF00A0C079A214611F81C
:10439C00013B303B092B4BD9B0B1079214E0A0EB99
:1043AC00080309FA03F31343A2460493D2E7039BD1
:1043BC00191D1B680391002BBBBF5B4242F002022C
:1043CC0007930793B8BF049223782E2B0AD16378F6
:1043DC002A2B32D1039B02341A1D1B68039243EA29
:1043EC00E3730593DFF8B4A003225046217800F064
:1043FC0019FA38B14022049BA0EB0A008240134307
:10440C000134049314F8011B062225488DF828105A
:10441C0000F008FA002836D0224B1BBB039B073355
:10442C0023F0070308330393099B334409936AE78A
:10443C000C4601200CFB0232A8E700234FF00A0CBB
:10444C00194601340593204610F8012B303A092AFD
:10445C0003D9002BC6D00591C4E7044601230CFBFD
:10446C000121F0E703AB00932A4638460E4B04A912
:10447C00AFF30080421C0646D6D1AB895B063FF5F4
:10448C002DAF09982CE703AB00932A463846064B10
:10449C0004A900F07DF8EDE7524B0008584B0008DA
:1044AC005C4B000800000000094200082DE9F047B1
:1044BC00164698468A680B6907469342B8BF13465E
:1044CC00336091F843200C46DDF820900AB101339B
:1044DC0033602368990642BF336802333360256822
:1044EC0015F0060506D104F1190AE36832689B1A27
:1044FC00AB422BDC94F843302268003B18BF0123FD
:10450C00920630D44146384604F14302C847013084
:10451C0023D02368226903F00603042B14BF002563
:10452C0033684FF0000608BFE56804F11A0408BFB1
:10453C00ED1A54F8123C08BF25EAE5759342C4BF46
:10454C009B1AED18B5421AD1002008E001235246FF
:10455C0041463846C847013003D14FF0FF30BDE823
:10456C00F0870135C1E73020E11881F843005A1C6F
:10457C0094F845102244023382F84310C2E7012319
:10458C00224641463846C8470130E6D00136D9E7C5
:10459C002DE9FF470F7E9146782F80460C469A46B0
:1045AC000C9E01F1430207D8622F0AD8002F00F0AD
:1045BC00D380582F00F0BA8004F1420684F8427080
:1045CC003AE0A7F16303152BF6D801A151F823F0BB
:1045DC003546000849460008C5450008C545000891
:1045EC00C5450008C545000849460008C5450008F2
:1045FC00C5450008C5450008C54500084B470008DF
:10460C007346000805470008C5450008C545000865
:10461C006D470008C545000873460008C5450008ED
:10462C00C54500080D47000833681A1D1B68326029
:10463C0004F1420684F8423001239EE0336820687E
:10464C00191D3160060601D51D6803E04506FBD532
:10465C00B3F90050002D03DA2D236D4284F843305A
:10466C000A23594811E021683368080653F8045BA3
:10467C0002D4490648BFADB26F2F336014BF0A2372
:10468C0008235148002184F843106668002EA8BF07
:10469C002168A660A4BF21F0040121600DB9002E91
:1046AC004BD01646B5FBF3F103FB1157C75D06F86B
:1046BC00017D2F46BB420D46F4D9082B0BD1236844
:1046CC00DF0708D5236961689942DEBF302306F8FD
:1046DC00013C06F1FF36921B22614B4621464046B7
:1046EC00CDF800A003AAFFF7E1FE01304AD14FF04C
:1046FC00FF3004B0BDE8F087236843F0200323604B
:10470C007827324884F84570236831681F0651F8C1
:10471C00045B02D45F0648BFADB23160D90744BF19
:10472C0043F0200323601DB11023ABE72648E9E7D3
:10473C00236823F020032360F6E71646BDE73368B1
:10474C002568181D616930602E061B6801D519603B
:10475C0002E06806FBD51980002316462361BCE7EE
:10476C00336800211A1D32601E686268304600F002
:10477C0059F808B1801B606063682361002384F8DA
:10478C004330AAE73246494640462369D0470130B8
:10479C00ADD023689B0713D4E068039B9842B8BF45
:1047AC001846A6E70123324649464046D047013019
:1047BC009DD00135E36803995B1AAB42F2DCEBE761
:1047CC00002504F11906F5E7634B0008744B00084B
:1047DC00884210B501EB020402D98442234607D863
:1047EC00431EA14208D011F8012B03F8012FF8E762
:1047FC00014602448A4200D110BD13F8014D02F863
:10480C00014DF7E738B50023054D044608462B60EB
:10481C00FBF7C2FE431C02D12B6803B1236038BDE9
:10482C0038030020034610B5C9B20244934218461F
:10483C0001D1002003E0047801338C42F6D110BD85
:10484C000A44914200F1FF3300D1704710B511F8C2
:10485C00014B914203F8014FF9D110BD2DE9F04104
:10486C00804615460C4621B91146BDE8F041FFF7CC
:10487C0039BC2AB9FFF7CCFB00242046BDE8F081F7
:10488C0000F01AF88542064602D8B5EB500FF4D862
:10489C0029464046FFF726FC07460028ECD0B542D7
:1048AC002A46214628BF3246FFF7CAFF214640461A
:1048BC00FFF7AEFB3C46E0E751F8043C181F002B19
:1048CC00BCBF0B58C0187047F8B500BFF8BC08BC8B
:1048DC009E467047F8B500BFF8BC08BC9E467047B2
:1048EC005B4442475D20425554544F4E5F3120701B
:1048FC007265737365640D0A000000005B444247E7
:10490C005D205448524553484F4C44203D20313093
:10491C002070706D0D0A00005B4442475D205448C6
:10492C00524553484F4C44203D2036363020707051
:10493C006D0D0A005B4442475D20425554544F4E66
:10494C005F3220707265737365640D0A000000009D
:10495C005B4442475D204C4344204D4F4445203D31
:10496C002057454C434F4D450D0A00005B444247D0
:10497C005D204C4344204D4F4445203D204741533E
:10498C000D0A00005B4442475D204C4344204D4FD0
:10499C004445203D2054454D500D0A005B44424790
:1049AC005D204C4344204D4F4445203D2048554DFF
:1049BC00490D0A0054656D703A25642E302A430D5A
:1049CC000A00000048756D69646974793A25642E93
:1049DC0030252552480D0A004761732064656E73BB
:1049EC006974793A256C752070706D0D0A000000A1
:1049FC003D3D3D3D3D3D3D3D3D3D3D3D3D3D3D3DDB
:104A0C003D3D3D3D3D3D3D3D0D0A00000D0A3D3D0A
:104A1C003D20474153204D4F4E49544F5220444561
:104A2C004D4F203D3D3D0D0A000000005B444247C8
:104A3C005D20425554544F4E5F313A204368616EAD
:104A4C006765207468726573686F6C640D0A00008A
:104A5C005B4442475D20425554544F4E5F323A20DE
:104A6C004368616E6765204C4344206D6F64650D2F
:104A7C000A0000000D0A3D3D3D2048433035204CD6
:104A8C00494E4B2053544152544544203D3D3D0D1D
:104A9C000A000000456E7669722053746174696F68
:104AAC006E00000047726F75702038004448543116
:104ABC0031206661696C20636F6465203D2025643C
:104ACC000D0A00004761732064656E736974793A4E
:104ADC0000000000256C752070706D0054656D70C1
:104AEC00657261747572653A00000000256420439C
:104AFC000000000048756D69646974793A00000023
:104B0C00256420252552480000000000000000000C
:104B1C000102030406070809000000000102030457
:104B2C0002030405060708090A0B0C0D0E0F1010E2
:104B3C000102000002030405060708090A0B0C0D0C
:104B4C000E0F10100102232D302B2000686C4C002E
:104B5C006566674546470030313233343536373871
:104B6C0039414243444546003031323334353637CF
:0C4B7C0038396162636465660000000067
:084B8800C4B5FF7F010000002D
:044B900031010008E7
:044B94000D01000807
:104B980000127A001000000001000000F40100007B
:104BA80001010000180000200000000000020020A1
:104BB80068020020D0020020000000000000000071
:104BC80000000000000000000000000000000000DD
:104BD80000000000000000000000000000000000CD
:104BE80000000000000000000000000000000000BD
:044BF80000000000B9
:040000050800089D4A
:00000001FF
